{
  "address": "0xA26c5d58615Ae35F7A0D3291943437d547b2aBF7",
  "_format": "hh-sol-artifact-1",
  "contractName": "Classifieds",
  "sourceName": "contracts/Classifieds.sol",
  "abi": [
    {
      "inputs": [
        {
          "internalType": "address",
          "name": "_itemTokenAddress",
          "type": "address"
        }
      ],
      "stateMutability": "nonpayable",
      "type": "constructor"
    },
    {
      "anonymous": false,
      "inputs": [
        {
          "indexed": false,
          "internalType": "uint256",
          "name": "ad",
          "type": "uint256"
        },
        {
          "indexed": false,
          "internalType": "bytes32",
          "name": "status",
          "type": "bytes32"
        }
      ],
      "name": "TradeStatusChange",
      "type": "event"
    },
    {
      "inputs": [
        {
          "internalType": "uint256",
          "name": "_trade",
          "type": "uint256"
        }
      ],
      "name": "cancelTrade",
      "outputs": [],
      "stateMutability": "nonpayable",
      "type": "function"
    },
    {
      "inputs": [
        {
          "internalType": "uint256",
          "name": "_trade",
          "type": "uint256"
        }
      ],
      "name": "executeTrade",
      "outputs": [],
      "stateMutability": "payable",
      "type": "function"
    },
    {
      "inputs": [
        {
          "internalType": "uint256",
          "name": "_trade",
          "type": "uint256"
        }
      ],
      "name": "getTrade",
      "outputs": [
        {
          "internalType": "address",
          "name": "",
          "type": "address"
        },
        {
          "internalType": "uint256",
          "name": "",
          "type": "uint256"
        },
        {
          "internalType": "uint256",
          "name": "",
          "type": "uint256"
        },
        {
          "internalType": "bytes32",
          "name": "",
          "type": "bytes32"
        }
      ],
      "stateMutability": "view",
      "type": "function"
    },
    {
      "inputs": [],
      "name": "itemToken",
      "outputs": [
        {
          "internalType": "contract IERC721",
          "name": "",
          "type": "address"
        }
      ],
      "stateMutability": "view",
      "type": "function"
    },
    {
      "inputs": [
        {
          "internalType": "uint256",
          "name": "_item",
          "type": "uint256"
        },
        {
          "internalType": "uint256",
          "name": "_price",
          "type": "uint256"
        }
      ],
      "name": "openTrade",
      "outputs": [],
      "stateMutability": "nonpayable",
      "type": "function"
    },
    {
      "inputs": [],
      "name": "tradeCounter",
      "outputs": [
        {
          "internalType": "uint256",
          "name": "",
          "type": "uint256"
        }
      ],
      "stateMutability": "view",
      "type": "function"
    },
    {
      "inputs": [
        {
          "internalType": "uint256",
          "name": "",
          "type": "uint256"
        }
      ],
      "name": "trades",
      "outputs": [
        {
          "internalType": "address",
          "name": "poster",
          "type": "address"
        },
        {
          "internalType": "uint256",
          "name": "item",
          "type": "uint256"
        },
        {
          "internalType": "uint256",
          "name": "price",
          "type": "uint256"
        },
        {
          "internalType": "bytes32",
          "name": "status",
          "type": "bytes32"
        }
      ],
      "stateMutability": "view",
      "type": "function"
    }
  ],
  "bytecode": "0x608060405234801561001057600080fd5b506040516110f63803806110f683398181016040528101906100329190610095565b806000806101000a81548173ffffffffffffffffffffffffffffffffffffffff021916908373ffffffffffffffffffffffffffffffffffffffff160217905550600060028190555050610107565b60008151905061008f816100f0565b92915050565b6000602082840312156100a757600080fd5b60006100b584828501610080565b91505092915050565b60006100c9826100d0565b9050919050565b600073ffffffffffffffffffffffffffffffffffffffff82169050919050565b6100f9816100be565b811461010457600080fd5b50565b610fe0806101166000396000f3fe6080604052600436106100705760003560e01c80631e6c598e1161004e5780631e6c598e146100e35780632db25e0514610123578063660d15b514610163578063777f54401461018e57610070565b806302d2838b1461007557806309ec6cc7146100915780630c493fba146100ba575b600080fd5b61008f600480360381019061008a9190610a45565b6101b9565b005b34801561009d57600080fd5b506100b860048036038101906100b39190610a45565b6104b5565b005b3480156100c657600080fd5b506100e160048036038101906100dc9190610a6e565b610730565b005b3480156100ef57600080fd5b5061010a60048036038101906101059190610a45565b6108f6565b60405161011a9493929190610ce4565b60405180910390f35b34801561012f57600080fd5b5061014a60048036038101906101459190610a45565b610946565b60405161015a9493929190610ce4565b60405180910390f35b34801561016f57600080fd5b50610178610a06565b6040516101859190610dc4565b60405180910390f35b34801561019a57600080fd5b506101a3610a0c565b6040516101b09190610d29565b60405180910390f35b6000600160008381526020019081526020016000206040518060800160405290816000820160009054906101000a900473ffffffffffffffffffffffffffffffffffffffff1673ffffffffffffffffffffffffffffffffffffffff1673ffffffffffffffffffffffffffffffffffffffff168152602001600182015481526020016002820154815260200160038201548152505090507f4f70656e000000000000000000000000000000000000000000000000000000008160600151146102b5576040517f08c379a00000000000000000000000000000000000000000000000000000000081526004016102ac90610d44565b60405180910390fd5b348160400151146102fb576040517f08c379a00000000000000000000000000000000000000000000000000000000081526004016102f290610da4565b60405180910390fd5b6000816000015173ffffffffffffffffffffffffffffffffffffffff163460405161032590610c98565b60006040518083038185875af1925050503d8060008114610362576040519150601f19603f3d011682016040523d82523d6000602084013e610367565b606091505b50509050806103ab576040517f08c379a00000000000000000000000000000000000000000000000000000000081526004016103a290610d84565b60405180910390fd5b60008054906101000a900473ffffffffffffffffffffffffffffffffffffffff1673ffffffffffffffffffffffffffffffffffffffff166323b872dd303385602001516040518463ffffffff1660e01b815260040161040c93929190610cad565b600060405180830381600087803b15801561042657600080fd5b505af115801561043a573d6000803e3d6000fd5b505050507f457865637574656400000000000000000000000000000000000000000000000060016000858152602001908152602001600020600301819055507f4d38ed2c5ea671a5ccddc331f0ebebd94a60aaf6e572543497485d4d148f9edf836040516104a89190610ddf565b60405180910390a1505050565b6000600160008381526020019081526020016000206040518060800160405290816000820160009054906101000a900473ffffffffffffffffffffffffffffffffffffffff1673ffffffffffffffffffffffffffffffffffffffff1673ffffffffffffffffffffffffffffffffffffffff16815260200160018201548152602001600282015481526020016003820154815250509050806000015173ffffffffffffffffffffffffffffffffffffffff163373ffffffffffffffffffffffffffffffffffffffff16146105bd576040517f08c379a00000000000000000000000000000000000000000000000000000000081526004016105b490610d64565b60405180910390fd5b7f4f70656e00000000000000000000000000000000000000000000000000000000816060015114610623576040517f08c379a000000000000000000000000000000000000000000000000000000000815260040161061a90610d44565b60405180910390fd5b60008054906101000a900473ffffffffffffffffffffffffffffffffffffffff1673ffffffffffffffffffffffffffffffffffffffff166323b872dd30836000015184602001516040518463ffffffff1660e01b815260040161068893929190610cad565b600060405180830381600087803b1580156106a257600080fd5b505af11580156106b6573d6000803e3d6000fd5b505050507f43616e63656c6c6564000000000000000000000000000000000000000000000060016000848152602001908152602001600020600301819055507f4d38ed2c5ea671a5ccddc331f0ebebd94a60aaf6e572543497485d4d148f9edf826040516107249190610e06565b60405180910390a15050565b60008054906101000a900473ffffffffffffffffffffffffffffffffffffffff1673ffffffffffffffffffffffffffffffffffffffff166323b872dd3330856040518463ffffffff1660e01b815260040161078d93929190610cad565b600060405180830381600087803b1580156107a757600080fd5b505af11580156107bb573d6000803e3d6000fd5b5050505060405180608001604052803373ffffffffffffffffffffffffffffffffffffffff1681526020018381526020018281526020017f4f70656e0000000000000000000000000000000000000000000000000000000081525060016000600254815260200190815260200160002060008201518160000160006101000a81548173ffffffffffffffffffffffffffffffffffffffff021916908373ffffffffffffffffffffffffffffffffffffffff1602179055506020820151816001015560408201518160020155606082015181600301559050506001600260008282546108a69190610e70565b925050819055507f4d38ed2c5ea671a5ccddc331f0ebebd94a60aaf6e572543497485d4d148f9edf60016002546108dd9190610ec6565b6040516108ea9190610e2d565b60405180910390a15050565b60016020528060005260406000206000915090508060000160009054906101000a900473ffffffffffffffffffffffffffffffffffffffff16908060010154908060020154908060030154905084565b6000806000806000600160008781526020019081526020016000206040518060800160405290816000820160009054906101000a900473ffffffffffffffffffffffffffffffffffffffff1673ffffffffffffffffffffffffffffffffffffffff1673ffffffffffffffffffffffffffffffffffffffff1681526020016001820154815260200160028201548152602001600382015481525050905080600001518160200151826040015183606001519450945094509450509193509193565b60025481565b60008054906101000a900473ffffffffffffffffffffffffffffffffffffffff1681565b600081359050610a3f81610f93565b92915050565b600060208284031215610a5757600080fd5b6000610a6584828501610a30565b91505092915050565b60008060408385031215610a8157600080fd5b6000610a8f85828601610a30565b9250506020610aa085828601610a30565b9150509250929050565b610ab381610efa565b82525050565b610ac281610f0c565b82525050565b610ad181610f40565b82525050565b7f4578656375746564000000000000000000000000000000000000000000000000815250565b6000610b0a601283610e5f565b91507f5472616465206973206e6f74204f70656e2e00000000000000000000000000006000830152602082019050919050565b6000610b4a602683610e5f565b91507f54726164652063616e2062652063616e63656c6c6564206f6e6c79206279207060008301527f6f737465722e00000000000000000000000000000000000000000000000000006020830152604082019050919050565b6000610bb0601483610e5f565b91507f4661696c656420746f2073656e642045746865720000000000000000000000006000830152602082019050919050565b7f43616e63656c6c65640000000000000000000000000000000000000000000000815250565b7f4f70656e00000000000000000000000000000000000000000000000000000000815250565b6000610c3c600083610e54565b9150600082019050919050565b6000610c56601583610e5f565b91507f4e6f742073756666696369656e742045746865722e00000000000000000000006000830152602082019050919050565b610c9281610f36565b82525050565b6000610ca382610c2f565b9150819050919050565b6000606082019050610cc26000830186610aaa565b610ccf6020830185610aaa565b610cdc6040830184610c89565b949350505050565b6000608082019050610cf96000830187610aaa565b610d066020830186610c89565b610d136040830185610c89565b610d206060830184610ab9565b95945050505050565b6000602082019050610d3e6000830184610ac8565b92915050565b60006020820190508181036000830152610d5d81610afd565b9050919050565b60006020820190508181036000830152610d7d81610b3d565b9050919050565b60006020820190508181036000830152610d9d81610ba3565b9050919050565b60006020820190508181036000830152610dbd81610c49565b9050919050565b6000602082019050610dd96000830184610c89565b92915050565b6000604082019050610df46000830184610c89565b610e0060208301610ad7565b92915050565b6000604082019050610e1b6000830184610c89565b610e2760208301610be3565b92915050565b6000604082019050610e426000830184610c89565b610e4e60208301610c09565b92915050565b600081905092915050565b600082825260208201905092915050565b6000610e7b82610f36565b9150610e8683610f36565b9250827fffffffffffffffffffffffffffffffffffffffffffffffffffffffffffffffff03821115610ebb57610eba610f64565b5b828201905092915050565b6000610ed182610f36565b9150610edc83610f36565b925082821015610eef57610eee610f64565b5b828203905092915050565b6000610f0582610f16565b9050919050565b6000819050919050565b600073ffffffffffffffffffffffffffffffffffffffff82169050919050565b6000819050919050565b6000610f4b82610f52565b9050919050565b6000610f5d82610f16565b9050919050565b7f4e487b7100000000000000000000000000000000000000000000000000000000600052601160045260246000fd5b610f9c81610f36565b8114610fa757600080fd5b5056fea2646970667358221220ce61cd678e8dd32a62aa04007b76a757d0a28b1591f9d13638c9998f437d682864736f6c63430008000033",
  "linkReferences": {},
  "deployedLinkReferences": {}
}